:100000000C94D0050C94F8050C94F8050C94F805A4
:100010000C94F8050C94F8050C94F8050C94F8056C
:100020000C94F8050C94F8050C941A0C0C94890C9B
:100030000C94F8050C94F8050C94F8050C94F8054C
:100040000C94F8050C94F8050C94F8050C94F8053C
:100050000C94F8050C94F8050C94F8050C94BB0E60
:100060000C94F8050C94F8050C94F8050C94F8051C
:100070000C94F8050C94F8050C94F8050C94F8050C
:100080000C94F8050C94F8050C94F8050C94F805FC
:100090000C94F8050C94F8050C94F8050C94F805EC
:1000A0000C94F8050C94F8050C94F8050000000079
:1000B000003E5B4F5B3E3E6B4F6B3E1C3E7C3E1CEE
:1000C000183C7E3C181C577D571C1C5E7F5E1C0034
:1000D000183C1800FFE7C3E7FF0018241800FFE7EB
:1000E000DBE7FF30483A060E2629792926407F05AE
:1000F0000507407F05253F5A3CE73C5A7F3E1C1CC4
:1001000008081C1C3E7F14227F22145F5F005F5F83
:1001100006097F017F006689956A6060606060946F
:10012000A2FFA29408047E040810207E2010080874
:100130002A1C08081C2A08081E101010100C1E0C7F
:100140001E0C30383E3830060E3E0E060000000011
:100150000000005F00000007000700147F147F14F8
:10016000242A7F2A1223130864623649562050003D
:1001700008070300001C2241000041221C002A1C29
:100180007F1C2A08083E0808008070300008080814
:100190000808000060600020100804023E51494534
:1001A0003E00427F400072494949462141494D3352
:1001B0001814127F1027454545393C4A49493141B9
:1001C000211109073649494936464949291E000087
:1001D00014000000403400000008142241141414DC
:1001E0001414004122140802015909063E415D59C8
:1001F0004E7C1211127C7F494949363E41414122D1
:100200007F4141413E7F494949417F090909013EFA
:10021000414151737F0808087F00417F4100204021
:10022000413F017F081422417F404040407F021C33
:10023000027F7F0408107F3E4141413E7F0909094A
:10024000063E4151215E7F09192946264949493216
:1002500003017F01033F4040403F1F2040201F3FDC
:100260004038403F63140814630304780403615961
:10027000494D43007F4141410204081020004141A3
:10028000417F04020102044040404040000307084F
:100290000020545478407F2844443838444444284B
:1002A000384444287F385454541800087E090218F2
:1002B000A4A49C787F0804047800447D400020407A
:1002C000403D007F1028440000417F40007C0478BE
:1002D00004787C080404783844444438FC18242406
:1002E0001818242418FC7C08040408485454542486
:1002F00004043F44243C4040207C1C2040201C3C03
:100300004030403C44281028444C9090907C4464F9
:10031000544C44000836410000007700000041368C
:10032000080002010204023C2623263C1EA1A16112
:10033000123A4040207A3854545559215555794144
:100340002154547841215554784020545579400C1B
:100350001E527212395555555939545454593955FC
:100360005454580000457C410002457D420001453F
:100370007C40F0292429F0F0282528F07C545545AC
:10038000002054547C547C0A097F4932494949323F
:100390003248484832324A4848303A4141217A3A54
:1003A00042402078009DA0A07D39444444393D401E
:1003B00040403D3C24FF2424487E4943662B2FFCCB
:1003C0002F2BFF0929F620C0887E09032054547979
:1003D000410000447D413048484A32384040227A4A
:1003E000007A0A0A727D0D19317D2629292F2826C7
:1003F0002929292630484D402038080808080808CF
:100400000808382F10C8ACBA2F102834FA00007B27
:10041000000008142A142222142A1408950022002D
:1004200095AA005500AAAA55AA55AA000000FF00E7
:10043000101010FF00141414FF001010FF00FF1024
:1004400010F010F0141414FC001414F700FF000056
:10045000FF00FF1414F404FC141417101F10101FD5
:10046000101F1414141F00101010F0000000001FC3
:10047000101010101F10101010F010000000FF10CE
:100480001010101010101010FF10000000FF1400CA
:1004900000FF00FF00001F10170000FC04F41414FC
:1004A0001710171414F404F40000FF00F7141414C8
:1004B00014141414F700F7141414171410101F1048
:1004C0001F141414F4141010F010F000001F101F6B
:1004D0000000001F14000000FC140000F010F010D9
:1004E00010FF10FF141414FF141010101F00000050
:1004F00000F010FFFFFFFFFFF0F0F0F0F0FFFFFF54
:100500000000000000FFFF0F0F0F0F0F38444438AA
:10051000447C2A2A3E147E02020606027E027E02E5
:1005200063554941633844443C04407E201E200604
:10053000027E020299A5E7A5991C2A492A1C4C7241
:1005400001724C304A4D4D303048784830BC625AC8
:10055000463D3E494949007E0101017E2A2A2A2A58
:100560002A44445F444440514A444040444A514034
:100570000000FF0103E080FF000008086B6B0836F5
:1005800012362436060F090F060000181800000066
:100590001010003040FF0101001F01011E00191D55
:1005A0001712003C3C3C3C0000000000F0F89C8E20
:1005B0008783878E9CF8F00000FEFF03030303038C
:1005C000070EFCF80000FEFF0303030303070EFC05
:1005D000F80000FFFF00000000000000FFFF000027
:1005E000FEFF8383838383C7EE7C380000F8FC0E14
:1005F00007030303070EFCF800003F7FE0C0808084
:10060000C0E07F3FFFFF01010101010101FFFF0089
:1006100000FFFF0C0C0C0C1C3E77E3C100007FFFB9
:10062000C0C0C0C0C0E0703F1F00001F3F70E0C0EE
:10063000C0C0E0703F1F00007FFFC1C1C1C1C1E366
:10064000773E1C00001F3F70E0C0C0C0E0703F1F3D
:10065000000000000001FFFF01000000D5F08D1434
:10066000A1C881CFD9F1AF20000000000000000038
:10067000000000000000000000000000000000007A
:10068000000000000000000000000000000000006A
:10069000000000000000000000000000000000005A
:1006A000000000000000000000000000000000004A
:1006B000000000000000000000000000000000003A
:1006C000000000000000000000000000000000002A
:1006D000000000000000000000000000000000001A
:1006E000000000000000000000000000000000000A
:1006F00000000000000000000000FCFCFCFC3C3C92
:100700003CFCFCF0F0C0C0000000003C3C3CFCFCA9
:10071000FCFC3C3C3C00000000F0F8FCFC7C3C3C59
:100720003C3C3C3C3C00000000FCFCFCFCF8F0E0E5
:10073000F0F8FCFCFCFC00000000E0F0F8FCFC7CA5
:100740007CFCFCF8F0E000000000FCFCFCFCF8E0A5
:10075000C00000FCFCFCFC000000000000000000E9
:100760000000000000000000000000000000000089
:1007700000000000000000000000FFFFFFFF00007D
:1007800000C0C0FFFFFFFF00000000000000FFFFEF
:10079000FFFF00000000000000FFFFFFFF80003CA3
:1007A0003CFCFCFCFC00000000FFFFFFFF03070F08
:1007B0000703FFFFFFFF00000000FFFFFFFF787847
:1007C0007878FFFFFFFF00000000FFFFFFFF0F3FF3
:1007D000FFFFFEFFFFFFFF00000000000000000021
:1007E0000000000000000000000000000000000009
:1007F000000000000000000000000F0F0F0F0F0F9F
:100800000F0F0F03030000000000000F0F0F0F0F6A
:100810000F0F0F0F0F0000000001070F0F0F0F0F3A
:100820000F0F0F0F0F000000000F0F0F0F00000041
:1008300000000F0F0F0F000000000F0F0F0F000040
:1008400000000F0F0F0F000000000F0F0F0F000030
:100850000001070F0F0F0F00000000000000000054
:100860000000000000000000000000000000000088
:100870000000000000000000000000000000000078
:100880000000000000000000000000000000000068
:100890000000000000000000000000000000000058
:1008A0000000000000000000000000000000000048
:1008B0000000000000000000000000000000000038
:1008C0000000000000000000000000000000000028
:1008D0000000000000000000000000000000000018
:1008E0000000000000000000000000000000000008
:1008F00000000000000000000000000000000000F8
:1009000000000000000000000000000000000000E7
:1009100000000000000000000000000000000000D7
:1009200000000000000000000000000000000000C7
:1009300000000000000000000000000000000000B7
:1009400000000000000000000000000000000000A7
:100950000000000000000000000000000000000097
:100960000000000000000000000000000000000087
:100970000000000000000000000000000000000077
:100980000000000000000000000000000000000067
:100990000000000000000000000000000000000057
:1009A0000000000000000000000000000000000047
:1009B0000000000000000000000000000000000037
:1009C0000000000000000000000000000000000027
:1009D0000000000000000000000000000000000017
:1009E0000000000000000000000000000000000007
:1009F00000000000000000000000000000000000F7
:100A000000000000000000000000000000000000E6
:100A100000000000000000000000000000000000D6
:100A200000000000000000000000000000000000C6
:100A300000000000000000000000000000000000B6
:100A400000000000000000000000000000000000A6
:100A50000000000000000000000000000000000096
:100A600000000000000000000000001C225DC1C169
:100A70005D22DCE0E0000000020F07070F03010029
:100A800000FE9BADED7F7DE7E3371D7BFE070F0981
:100A90000B0E0C0E0F0B090F070030489C5C3C3C02
:100AA000549C4830000000000001020201000000D8
:100AB00000000000F8F40A0AF4F80000000000004A
:100AC00001020505020100000000000000F0F8E846
:100AD000F000000000000000000001010000000024
:100AE000000020A8A8880010B8EC600000000000FA
:100AF00000000000010000000000F8040202C22211
:100B0000120204F8000001020404050404040201B6
:100B10000000C850E214F8F814E250C800000402C3
:100B2000010207070201020400080B000202020092
:100B30000009040000010202000005240010010564
:100B40002401010104240206052406000107058191
:100B50000310004009040100020A0000000705021A
:100B6000024000000705830240000004030904124C
:100B7000010002EF0201404123368000010102031F
:100B80000141726475696E6F204C4C430041726480
:100B900075696E6F204C656F6E6172646F00380FFF
:100BA00011241FBECFEFDAE0DEBFCDBF11E0A0E021
:100BB000B1E0E6EAFBE202C005900D92A838B10769
:100BC000D9F726E0A8E8B1E001C01D92AC3AB2071F
:100BD000E1F715E0C0EDD5E004C02197FE010E94C9
:100BE000CB15CF3CD107C9F70E94690F0C94D115E2
:100BF0000C940000E0E5F2E0A0E0B8E000800EBC5C
:100C00008111012C1197A0FDFDCF0192B9F70DB410
:100C100008952F923F924F925F926F927F928F92A0
:100C20009F92AF92BF92CF92DF92EF92FF920F937B
:100C30001F93CF93DF93A22EB12C9501280F391F5C
:100C4000121613060CF09DC0803891050CF099C067
:100C50009B01200F311D121613060CF092C0603458
:100C600071050CF08EC09B0177FF04C0222733274B
:100C7000261B370B27703327DB0177FD1796E3E040
:100C8000B595A795EA95E1F777FF07C0119768E05A
:100C900070E0FB01E21BF30B9F01E02EE694E6946B
:100CA000E694F12C077019F0FFEFEF1AFF0A8A01A2
:100CB000AD015695542F442757954795480F591F16
:100CC000405B5D4FBD01E8E0F0E02F01421A530A9E
:100CD0006F3FEFEF7E070CF444C06C01D0E0C0E042
:100CE0003A01E0E86E0E711CD7FC2FC06F3F76070B
:100CF00009F45AC0F801EC0FFD1FE4914A018C0E73
:100D00009D1EF0E01F01022E01C0220C0A94EAF79A
:100D1000F40130802328208221153105B1F067309D
:100D2000710599F0F801EC0FFD1FE49143018C0E61
:100D30009D1EF0E01F01042C02C0359427940A94F4
:100D4000E2F7F4013080232820822196FFEFCF1AAA
:100D5000DF0ACA15DB052CF4F0E8CF16D10409F040
:100D6000C3CF6F5F7F4F0A0D1B1D40585F4FFB01C4
:100D7000EA1BFB0BEE15FF0524F46830710509F042
:100D8000A7CFDF91CF911F910F91FF90EF90DF9050
:100D9000CF90BF90AF909F908F907F906F905F901B
:100DA0004F903F902F9008952115310509F0BACF4B
:100DB000CCCF9C01255F3F4F2B38310588F5AC0126
:100DC00097FF02C050E040E00C968138910514F086
:100DD00080E890E0841BFB01E770FF2721E030E012
:100DE00001C0220FEA95EAF7209577FF02C0695FFC
:100DF0007F4FFB0193E0F595E7959A95E1F7F6951E
:100E0000FE2FEE27F795E795E40FF51FE05BFD4F0A
:100E1000815030F09191DF01119792239C93F8CF8C
:100E20000895FC0180914F02882311F13FB7F89497
:100E300082E08093E9002091F200822F90E0181662
:100E4000190614F481E090E0882339F0289844E6EC
:100E500040934E024091F1004083222339F02091CB
:100E6000F200211103C02BE62093E8003FBF089554
:100E70008FEF9FEF08952FB7F89483E08093E900F8
:100E80009091E800892F807295FF04C09091F20044
:100E900080E4891B2FBF08958091460281110DC007
:100EA00082E08093420284E08093430210924502E4
:100EB0001092440281E08093460282E492E0089519
:100EC000CF93DF931F92CDB7DEB76983DC01ED913D
:100ED000FC910280F381E02D41E050E0BE016F5FA4
:100EE0007F4F09950F90DF91CF91089583E0809314
:100EF000E9008091F200882319F08AE38093E800EA
:100F000008950E943B0790E00895CF93DF931F92CE
:100F1000CDB7DEB7FC018485958597FD08C02FEF1E
:100F20003FEF358724870F90DF91CF910895CE0151
:100F300001960E941107019719F4898190E0F3CF7F
:100F40008FEF9FEFF0CF0F931F93CF93DF931F92FD
:100F5000CDB7DEB78C01FC018485958597FF0BC06A
:100F6000CE0101960E941107019771F4898190E0EA
:100F7000F80195878487F801848595850F90DF9126
:100F8000CF911F910F9108958FEF9FEFF1CFFC014B
:100F90008485958597FD0BC09FB7F89482E0809378
:100FA000E9008091F2009FBF90E0019608959FB7FD
:100FB000F89482E08093E9008091F2009FBF90E076
:100FC000089540913C0250913D0220913A023091A7
:100FD0003B0242175307B4F49091E8009570E1F397
:100FE0009091E80092FD19C08093F10080913C023D
:100FF00090913D0201968F739927892B19F48EEFFA
:101000008093E80080913C0290913D02019690937C
:101010003D0280933C0281E0089580E00895DF92D4
:10102000EF92FF920F931F93CF93DF93D82E8A01F5
:10103000EB017B01E40EF51ECE15DF0559F0D7FE5E
:1010400012C0FE0184910E94E10721968111F4CF24
:101050000FEF1FEFC801DF91CF911F910F91FF900C
:10106000EF90DF9008958881EECF0F931F93CF9379
:10107000DF931F92CDB7DEB782E0898342E450E070
:1010800069E27BE080E80E940F080E944C07DC01C7
:1010900012960D911C910115110589F0D801ED9161
:1010A000FC910280F381E02DBE016F5F7F4FC8018C
:1010B000099597FD04C0F80100851185ECCF898161
:1010C0000F90DF91CF911F910F910895615030F0F3
:1010D0002091F100FC0120830196F8CF289884E646
:1010E00080934E0208953FB7F89480913602909114
:1010F0003702A0913802B091390226B5A89B05C0ED
:101100002F3F19F00196A11DB11D3FBFBA2FA92F86
:10111000982F8827BC01CD01620F711D811D911D83
:1011200042E0660F771F881F991F4A95D1F70895EF
:101130008F929F92AF92BF92CF92DF92EF92FF92E7
:101140006B017C010E9473084B015C01C114D10446
:10115000E104F104B9F00E947308681979098A0959
:101160009B09683E73408105910580F321E0C21A16
:10117000D108E108F10888EE880E83E0981EA11CD2
:10118000B11CE4CFFF90EF90DF90CF90BF90AF9075
:101190009F908F9008958F929F92AF92BF92CF921F
:1011A000DF92EF92FF920F931F93CF93DF936C0127
:1011B0007B018A0180911001882309F45CC0809131
:1011C0004F02882309F457C08091410280FF05C077
:1011D0008091E00082608093E000E801B12C8AEF0A
:1011E000A82E93E0892E2AE3922E209711F4BB209B
:1011F000D9F10E943B0781110AC0AA94AA20D9F113
:1012000061E070E080E090E00E949808EECF8C17DB
:101210001D0611F00CF08C2F9FB7F8948092E90016
:101220002091E80025FD02C09FBFDFCF282F30E0CE
:10123000C21BD30BF701815020F041914093F10084
:10124000FACFE20EF31EBB2021F09092E800B12C01
:10125000EBCF8091E80085FDE7CF9092E800BB24BA
:10126000B394209709F3F3CF5D9884E6809340020E
:10127000101611063CF081E090E0F6019383828322
:1012800010E000E0C801DF91CF911F910F91FF9016
:10129000EF90DF90CF90BF90AF909F908F90089588
:1012A0002FB7F8946091320270913302809134022A
:1012B000909135022FBF0895AF92BF92CF92DF92E7
:1012C000EF92FF920F931F93CF93DF936C017B01FB
:1012D0008B01040F151FEB015E01AE18BF08C0178C
:1012E000D10759F06991D601ED91FC910190F081FF
:1012F000E02DC6010995892B79F7C501DF91CF91C2
:101300001F910F91FF90EF90DF90CF90BF90AF9023
:1013100008952D9A0895BC0190E080E00C949808FF
:101320008FB18095807F669B88601C9B8460089548
:1013300020E191E061FD94E060FD990F62FD9295DE
:10134000687F269FD0011124A80FA05BBD4F8C9110
:1013500040FF03C0892B8C93089590958923FBCF80
:10136000EF92FF920F931F93CF93DF937C018B013A
:10137000040F111DEB0177FF02C0D0E0C0E0C801EF
:101380000134110514F080E490E0C817D9075CF42B
:1013900080E8E816F10428F440E0BE01C7010E948D
:1013A00098092196ECCFDF91CF911F910F91FF907B
:1013B000EF900895EF92FF920F931F93CF93DF93D7
:1013C000EC017C01E60EF11CCE15DF058CF410E07B
:1013D00000E0C038D1052CF440E0B801CE010E94F5
:1013E00098090F5F1F4F0830110599F72196ECCF30
:1013F000DF91CF911F910F91FF90EF90089580E0C2
:10140000E0E5F2E081118FEF0024819381938193D5
:1014100081930394D1F71092280210922702109220
:101420002A021092290208958F929F92AF92BF9242
:10143000CF92DF92EF92FF920F931F93CF93DF93A0
:101440006D3089F0C0902702D09028026A30D1F424
:1014500010922A021092290288E0C80ED11CD09264
:101460002802C092270281E090E0DF91CF911F9186
:101470000F91FF90EF90DF90CF90BF90AF909F9033
:101480008F9008950091290210912A02E5E06E9F45
:10149000E0011124C455DF4F5801F12CF5E0E12C97
:1014A000FF1629F0CE010196FE01E490EC01912C8B
:1014B000812CF0E8AF16B10458F4B601680D791D1F
:1014C0006034710528F44E2D4170C5010E949809C1
:1014D000E6948FEF881A980AE8E08E16910449F78F
:1014E000F394FFEFAF1ABF0A86E0F812D7CF0A5F76
:1014F0001F4F10932A0200932902B5CFCF93C82F14
:101500000E949009982F9C2381E09C1380E0CF914A
:10151000089580E00C94FA058F929F92AF92BF924B
:10152000CF92DF92EF92FF920F931F93CF93DF93AF
:10153000EC010E9450096B017C010E9450098B0153
:101540009C01409188015091890160918A017091BC
:101550008B018091950190919601A0919701B09196
:10156000980188579C4EAF4FBF4F46015701841AD0
:10157000950AA60AB70AB501A401081719072A0790
:101580003B0790F4463951056105710590F4DF91F0
:10159000CF911F910F91FF90EF90DF90CF90BF9070
:1015A000AF909F908F9008954A3F51056105710556
:1015B00070F38091A2069091A3068C0F9D1F9C0151
:1015C000215031092337310520F49093A3068093ED
:1015D000A206C0928801D0928901E0928A01F0921D
:1015E0008B01D5CF089590E080E008958F929F926F
:1015F000AF92BF920F931F93CF93DF93CDB7DEB718
:10160000A1970FB6F894DEBF0FBECDBF19A242302E
:1016100008F44AE08E010F5D1F4F842E912CB12CEF
:10162000A12CA50194010E949A15E62FB901CA01C7
:10163000EA3044F5E05DD801EE938D01232B242B95
:10164000252B79F790E080E0109769F0FD0101907B
:101650000020E9F73197AF014A1B5B0BBD0188EA17
:1016600096E00E945C09A1960FB6F894DEBF0FBE0B
:10167000CDBFDF91CF911F910F91BF90AF909F9001
:101680008F900895E95CD7CFCF92DF92EF92FF92CF
:10169000CF93DF936B017C016DE288EA96E00E94B4
:1016A000140AEC0166277727CB016C197D098E0996
:1016B0009F094AE00E94F60A8C0F9D1FDF91CF918F
:1016C000FF90EF90DF90CF900895FC0101900020F3
:1016D000E9F73197AF01481B590BBC0188EA96E046
:1016E0000C945C09BC01990F880B990B97FD0C9425
:1016F000440B4AE00C94F60A0C9452150E94FA141A
:1017000024E630E040E050E00E946815DC01CB01A7
:101710000196A11DB11D82309105FCF0823091052A
:1017200091F40E94FA1421E330E040E050E00E947E
:1017300068156F5F7F4F8F4F9F4F6A31710584F03F
:1017400086E090E008958C3491056CF08B3591051E
:101750006CF08436910569F408958EEF9FEF08953B
:1017600085E090E0089590E080E0089581E090E0C9
:1017700008958AE090E00895CF92DF92EF92FF9271
:101780000F931F93CF93DF9331E1C32E32E0D32E1B
:1017900049E9E42E41E0F42EC8E1D0E08091A406AE
:1017A0009091A5068C0F9D1FF601819391936F0177
:1017B00010E000E00E947E0BF801EE0FFF1FEE0D1F
:1017C000FF1D918380830F5F1F4F0A30110591F732
:1017D0002C96F4E1EF0EF11CC036D105F9F610920B
:1017E0002E0210922D0210922C020E94500960933A
:1017F000910170939201809393019093940180E3FF
:1018000095E7A0E0B0E08093010190930201A093DE
:101810000301B093040181E090E090933002809343
:101820002F02DF91CF911F910F91FF90EF90DF90EA
:10183000CF9008951F920F920FB60F9211248F939D
:101840009F938091E1009091E100937F9093E1005C
:1018500083FF0FC01092E90091E09093EB0010928B
:10186000EC0092E39093ED0010924F0298E0909379
:10187000F00082FF22C093E09093E9009091F20083
:10188000992319F09AE39093E800909140029923EC
:1018900041F090914002915090934002911101C00B
:1018A0005D9A90914E02992341F090914E02915091
:1018B00090934E02911101C0289A84FF18C0809124
:1018C000E2008E7E81608093E2008091E1008F7E55
:1018D0008093E100809141028E7E8061809341027D
:1018E0009F918F910F900FBE0F901F90189580FFC2
:1018F000F7CF8091E2008E7E80618093E20080913C
:10190000E1008E7E8093E100809141028E7E8160B5
:10191000E5CF1F920F920FB60F921124CF92DF9254
:10192000EF92FF920F931F932F933F934F935F93E9
:101930006F937F938F939F93AF93BF93EF93FF9397
:10194000CF93DF93CDB7DEB76C97DEBFCDBF1092DC
:10195000E9008091E80083FF25C068E0CE0145964C
:101960000E94660882EF8093E8008D8987FF39C066
:101970009091E80090FFFCCF982F907609F034C149
:101980009E894F89588D2F89F88C911131C08038EC
:1019900061F580913F028093F1001092F1008EEF8B
:1019A0008093E8006C960FB6F894DEBF0FBECDBFF3
:1019B000DF91CF91FF91EF91BF91AF919F918F9167
:1019C0007F916F915F914F913F912F911F910F9157
:1019D000FF90EF90DF90CF900F900FBE0F901F9071
:1019E00018959EEF9093E800C7CF1092F100D5CFE5
:1019F000913059F48111D3CF4130510581F6809156
:101A00003F028D7F80933F02CACF933049F481110A
:101A1000C6CF4130510519F680913F028260F2CF66
:101A2000953041F48091E80080FFFCCF206820933E
:101A3000E300B5CF963009F0A9C00B8D1C8D22E0D4
:101A40001092E90010923D0210923C02F2122EC058
:101A500010923B0210923A020E9435081F8299E0D0
:101A60009983FA8291E09E8390EA98879AEF99870A
:101A700020913C0230913D02275F3F4F3C832B83F6
:101A80008D831092E90010923D0210923C02109357
:101A90003B0200933A0249E050E0BE016F5F7F4F86
:101AA00080E00E940F080E94350879CF10933B0216
:101AB00000933A020E944C07DC0112960D911C9192
:101AC0000115110509F451C1D801ED91FC91048073
:101AD000F581E02DBE016B5E7F4FC801099500972F
:101AE00009F03EC1F80100851185EACFF3E0FF124D
:101AF0000EC08F89882309F440C0823061F440E829
:101B000060E18DE89BE00E94050F811148CF81E2E2
:101B10008093EB0047CF813029F440E86BE081E807
:101B20009BE0F1CF833099F70E944C07DC011296BD
:101B3000ED90FC908E010F5F1F4F6801E114F104DE
:101B400079F0D701ED91FC910680F781E02DB80185
:101B5000C7010995080F111DF701E084F184EECF4C
:101B6000D8011C92F60101900020E9F73197BF01DE
:101B70006C197D0940E0C601C6CF6BE67BE0FB0136
:101B8000449150E080E80E940F0809CF973009F493
:101B9000BECF983021F481E08093F10000CF9930DE
:101BA00009F0FDCE837009F0B2CFE6E1F1E081E00B
:101BB00031E096E32191222371F08093E900309384
:101BC000EB00DF0111972C912093EC009093ED0036
:101BD0008F5F873079F78EE78093EA001092EA00F2
:101BE0008F8980934F02DBCE8B8D9C8D1092E90004
:101BF00010923D0210923C0290933B0280933A0275
:101C0000898D811192C08E899D89913A49F48132E2
:101C100009F07DCF47E050E069E071E080E0B3CFAC
:101C2000913209F074CF833269F48F89988DB0E0D6
:101C3000A0E08093050190930601A0930701B09363
:101C40000801ADCE803269F48091E80082FFFCCFBC
:101C500067E089E091E00E9466088BEF8093E800DE
:101C60009ECE823209F09BCE8F8980931001EEEFD9
:101C7000FFE7859194918B3F9C4D51F1E0E0F8E0B6
:101C80008091090190910A01A0910B01B0910C0182
:101C9000803B9440A105B105F1F48091100180FDD5
:101CA0001AC0EE3F8AE0F80789F587E797E7918346
:101CB00080838091600080933E0288E19BE00FB6B4
:101CC000F894A895809360000FBE9093600067CE53
:101CD000EEEFFAE0D5CF808191818737974709F001
:101CE0005ECEA895809160008861809360008091AD
:101CF0003E0280936000EE3F2AE0F20789F0809177
:101D0000FE0A9091FF0A9183808349CE8081918160
:101D10008737980751F29093FF0A8093FE0AC5CF48
:101D20001092FF0A1092FE0A3ACE0E944C07DC0184
:101D300012960D911C910115110509F4E8CED801F8
:101D4000ED91FC910190F081E02DBE016B5E7F4F23
:101D5000C8010995811123CEF80100851185EBCFCB
:101D6000181619060CF41BCED2CEF1E0FF12BECE2F
:101D70006FE67BE004CF1F920F920FB60F921124F3
:101D80002F933F938F939F93AF93BF938091320292
:101D900090913302A0913402B0913502309131021A
:101DA00023E0230F2D3758F50196A11DB11D209377
:101DB00031028093320290933302A0933402B093A5
:101DC00035028091360290913702A0913802B0918D
:101DD00039020196A11DB11D8093360290933702FE
:101DE000A0933802B0933902BF91AF919F918F9128
:101DF0003F912F910F900FBE0F901F90189526E8DE
:101E0000230F0296A11DB11DD2CFEF92FF920F9327
:101E10001F93CF93DF93F82E192FE62E042F81E026
:101E2000860F880F0E94E10783E00E94E107CF2D13
:101E3000D12FEC0EFD2EF11CCE15DF05B9F007FFFA
:101E400013C0FE0184910E94E107182F80E00E94D8
:101E5000E107812321968111EFCFDF91CF911F916F
:101E60000F91FF90EF9008958881EDCF81E0F5CF3D
:101E7000E0E5F6E01382128288EE93E0A0E0B0E0A5
:101E800084839583A683B78380E291E091838083E6
:101E90008FEF9FEF95878487E8EAF6E0138212823E
:101EA00082E391E09183808384E090E09093A706A1
:101EB0008093A6069093A5068093A4069093A3060C
:101EC0008093A20680E190E09093A1068093A00603
:101ED0000895CF93DF9300D000D0CDB7DEB77894CC
:101EE00084B5826084BD84B5816084BD85B582601F
:101EF00085BD85B5816085BD80916E0081608093D0
:101F00006E00109281008091810082608093810038
:101F10008091810081608093810080918000816048
:101F200080938000809191008260809391008091E5
:101F300091008160809391008091900081608093F6
:101F400090008091C10084608093C1008091C100A5
:101F500082608093C1008091C10081608093C10044
:101F60008091C30081608093C3008091C000826033
:101F70008093C0008091C20081608093C2008091F4
:101F80007A00846080937A0080917A0082608093E6
:101F90007A0080917A00816080937A0080917A0043
:101FA000806880937A0010924F0210923F02109244
:101FB00041028091D70081608093D70080EA8093AE
:101FC000D80089B5806189BD89B5826089BD09B4B1
:101FD00000FEFDCF61E070E080E090E00E94980894
:101FE0008091D8008F7C80618093D8008091E00040
:101FF000807F8093E0008091E1008E7E8093E100FD
:102000008DE08093E200559A209AB9E9EB2EB1E079
:10201000FB2E11E1C12E12E0D12E28E130E03A83EF
:1020200029838091A4069091A50649815A81840F45
:10203000951FF601819391936F0110E000E00E94DB
:102040007E0BF801EE0FFF1FEE0DFF1D91838083C5
:102050000F5F1F4F0A30110591F729813A81245FE4
:102060003F4F3A83298334E1E30EF11C49815A81C1
:1020700040365105B1F681EC80937C0085B1806FCC
:1020800085B984B1877E84B984B1876E84B95E9A3C
:102090005F988AB1806D8AB9769A6E9881B3806FA5
:1020A00081BB899880B38D7080BB80E58CBD81E059
:1020B0008DBD85E090E00E948B095F9A85E090E0FD
:1020C0000E948B095E985C98ECE5F6E084918EBDE9
:1020D00000000DB407FEFDCF319656E0E936F50756
:1020E000A9F75C9A81E88093640080916500816023
:1020F000809365000E94890A80E80E947E0A8823F6
:10210000A9F05C9885EA8EBD00000DB407FEFDCFF6
:102110005C9A2E982F982D9880916400806280930D
:10212000640081E083BF889513BEFCCF84E00E94E9
:102130007E0A882309F448C02D9884E80E947E0A0C
:102140008823E1F00E94890988EC90E00E948B09C5
:102150002F9882E090E00E9452158F3F29F06FEF98
:1021600082E090E00E945A1584EF91E00E948B0972
:102170002F9A84E80E947E0A8111FBCF84E10E949D
:102180007E0A8823E1F00E94890988EC90E00E9491
:102190008B092E9882E090E00E945215882329F046
:1021A00060E082E090E00E945A1584EF91E00E9486
:1021B0008B092E9A84E10E947E0A8111FBCF88EC64
:1021C00090E00E948B09B2CF0E94890982E090E0E2
:1021D0000E947C0B882309F452C03E9A3F9A81E00A
:1021E00090E00E947C0B182F147081FF10C0111119
:1021F0002E9881EF9FEF9A83898380E40E947E0A64
:10220000882309F43FC02E9A2F9A0E94890982E3FD
:1022100090E00E948B090E9490098111F8CF80E123
:102220008093000190E080E00E9452158093250287
:1022300081E090E00E945215809326020E9450098E
:102240006093910170939201809393019093940114
:1022500072E0672E712C0E94900980938C010E947D
:10226000500980918F01882309F471C010928F0169
:1022700080E090E0892B79F30E940000ECCF3E983B
:102280003F98ADCF112331F0E981FA81349711F4F1
:102290002E9A2F9881E00E94FA0500E128E54CEA89
:1022A00055E069817A8184E190E00E9409060E94EC
:1022B000890A8FE090E00E948B0929813A812F5F83
:1022C0003F4F3A8329832931310509F096CF1123F5
:1022D00011F02F9A2D9880E991E00E948B090E94BD
:1022E000890981E090E00E947C0B80FF90CF8AE01A
:1022F00090E00E947C0B9FEF980F9E3F08F087CFE5
:1023000022E330E030932A022093290228E330E0D0
:1023100030932802209327024BE050E05A834983F0
:10232000682F88EA96E00E94140A89819A810E94A7
:102330007C0BE981FA813196FA83E983719781F701
:102340000E94890A88EE93E00E948B0960CF8091F9
:102350009001F62FF81B8F2F90910001F91748F488
:102360008F5F891708F084CF81E083BF889513BE03
:102370007FCF21E020938F016093900180918D01A8
:1023800090918E01019690938E0180938D018091A2
:102390002F02909130028130910509F4D3C008F4E6
:1023A00083C0029709F064CFC0902C02D0902D0218
:1023B000DA82C98280912502909126028C159D05B2
:1023C00004F5D0922602C092250220932B02198197
:1023D00090E080E00E945215811729F0612F90E073
:1023E00080E00E945A15D0902602D98281E090E0C8
:1023F0000E945215D81629F06D2D81E090E00E94C0
:102400005A150E94FF0983E290E090932A0280937C
:10241000290210922802109227028BE491E00E9478
:10242000650B8AE090E090932A028093290284E170
:1024300090E0909328028093270280912B028823BA
:1024400009F487C286E591E00E94650B10922B0289
:1024500082E3E82EF12CF0922A02E09229028EE12A
:1024600090E0909328028093270280912C02909113
:102470002D020E94720B8AE090E090932A028093D2
:102480002902F0922802E092270284E791E00E945C
:10249000650B0E94890A88E00E947E0A882309F45D
:1024A000E7CE0E94BC0BE4CE88E00E947E0A88231F
:1024B00049F0CC24C394D12CD0923002C0922F0288
:1024C0000E94BC0B0E94FF0900E420E849E656E0A8
:1024D00070E060E090E080E00E94090650E1E52EA7
:1024E000F12CF0922A02E092290283E290E090938C
:1024F0002802809327028AE391E00E94650B8FE017
:1025000090E090932A028093290282E390E09093D6
:102510002802809327028AE591E00E94650B609172
:10252000250270912602072E000C880B990B97FF4D
:1025300003C00E94440B03C04AE00E94F60A0E94B6
:10254000890A96CE80912E028111FEC180E20E94FE
:102550007E0A882309F45AC184EF9FEF0E948C0AF7
:1025600080E10E947E0A882381F10E9450094B017C
:102570005C010E9450098B019C0140911D02509109
:102580001E0260911F02709120028091950190912E
:102590009601A0919701B091980188579C4EAF4F3A
:1025A000BF4F75016401C41AD50AE60AF70AB701DC
:1025B000A601081719072A073B0708F030C146395A
:1025C00051056105710508F030C14091210250911B
:1025D0002202609123027091240280910101909166
:1025E0000201A0910301B0910401481759076A073D
:1025F0007B0718F081E080932E020E94FF0991E191
:10260000A92E92E0B92E29E9422E21E0522E620134
:10261000912C812CF501E080F1802091A60630916B
:10262000A706280D391D3C832B834091A2065091AB
:10263000A3065A8349832090A0063090A106241750
:10264000350719F5E214F30401F5F6018081918153
:102650008530910509F027C1809101019091020117
:10266000A0910301B091040188579C4EAF4FBF4F1A
:102670008093010190930201A0930301B0930401A0
:102680002FEF3FEFF60131832083F60180819181A6
:102690008F3F980709F02FC120E4E216F10428F4D7
:1026A000B7018B819C810E94D906B701655F7F4F7E
:1026B0006034710520F48B819C810E94D9064CE026
:1026C000B7018B819C810E94B0094CE0B7018B81DE
:1026D0009C810B960E94B0094CE0840E911C52E044
:1026E000C50ED11C88E78816910409F093CF94E1B8
:1026F000490E511CE2E0AE0EB11CFDE1AF16F2E056
:10270000BF0609F084CF0CE02CE049E65AE0B101A5
:1027100089819A810E9409060E94500900919101C5
:10272000109192012091930130919401601B710BE3
:10273000820B930B609321027093220280932302F9
:1027400090932402C0902C02D0902D02DA82C9828C
:10275000960161E070E02A30310574F062E070E0CB
:10276000243631054CF063E070E048EEC41643E0D7
:10277000D40614F065E070E02AEF26038001279F5D
:10278000100D1124862F880F680F660FC80184581A
:102790009F4F0E94DA0902581F4F10932A0200939C
:1027A0002902709228026092270289819A810E94F0
:1027B000720B60910101709102018091030190916F
:1027C00004010091210210912202209123023091F4
:1027D0002402601B710B820B930B28EE33E040E068
:1027E00050E00E949A1569016CE082E090E00E943E
:1027F000DA0970922A02609229027092280260928D
:102800002702B601DD0C880B990B91CE80E40E9463
:102810007E0A882309F4A4CE8CE090E09FCE4A3F44
:1028200051056105710508F4D0CE09E911E021E1F7
:1028300032E03A832983E981FA81808191810C9782
:1028400097FF2CC044E3C42ED12CD182C082F12C3E
:10285000E12C0E947E0BF701EE0FFF1FE00FF11F2E
:10286000918380832FEFE21AF20A3AE0E316F10433
:1028700081F729813A812E5F3F4F3A8329830C5E8D
:102880001F4F32E001311307B1F680921D02909282
:102890001E02A0921F02B092200297CEE981FA8117
:1028A00091838083E6CF8630910559F40E945009C8
:1028B000609395017093960180939701909398018E
:1028C000DFCE8E3FFFEF9F0739F422E030E03093F8
:1028D000300220932F02D4CE181619060CF0D0CE59
:1028E00020912C0230912D02820F931F90932D0284
:1028F00080932C02C5CE0CE02CE041E15BE08E3FE2
:102900003FEF9307D9F049EF5AE085309105B1F0D8
:1029100041EE5AE08630910589F049EC5AE0813069
:10292000910561F041EB5AE08A30910539F049E9AF
:102930005AE08436910511F041E85AE0B7018B81E5
:102940009C810E940906C8CE7092300260922F02CC
:102950008FCC87E691E00E94650B7ACD8F929F9293
:10296000AF92BF92CF92DF92EF92FF92CF93DF931D
:10297000EC01688179818A819B81611571058105EE
:10298000910521F464E279ED8BE597E02DE133EFD9
:1029900041E050E00E94681549015A019B01AC01D9
:1029A000A7EAB1E40E9487156B017C01ACEEB4EF9D
:1029B000A50194010E949515C60ED71EE81EF91EAA
:1029C000F7FE06C081E0C81AD108E10880E8F80ADD
:1029D000C882D982EA82FB82C701B6019F77DF9164
:1029E000CF91FF90EF90DF90CF90BF90AF909F90EE
:1029F0008F9008958F929F92AF92BF92CF92DF9265
:102A0000EF92FF9260911101709112018091130178
:102A100090911401611571058105910521F464E21D
:102A200079ED8BE597E02DE133EF41E050E00E9436
:102A3000681549015A019B01AC01A7EAB1E40E9463
:102A400087156B017C01ACEEB4EFA50194010E94E7
:102A50009515C60ED71EE81EF91EF7FE06C081E0CA
:102A6000C81AD108E10880E8F80AC0921101D09292
:102A70001201E0921301F0921401C701B6019F7791
:102A8000FF90EF90DF90CF90BF90AF909F908F908E
:102A90000895609311017093120180931301909334
:102AA00014010895F999FECF92BD81BDF89A992736
:102AB00080B50895262FF999FECF1FBA92BD81BD2A
:102AC00020BD0FB6F894FA9AF99A0FBE01960895B0
:102AD000052E97FB1EF400940E947F1557FD07D02A
:102AE0000E949A1507FC03D04EF40C947F15509564
:102AF0004095309521953F4F4F4F5F4F08959095EA
:102B00008095709561957F4F8F4F9F4F08950E94DC
:102B1000BC15A59F900DB49F900DA49F800D911D95
:102B200011240895B7FF0C9487150E948715821B06
:102B3000930B0895A1E21A2EAA1BBB1BFD010DC029
:102B4000AA1FBB1FEE1FFF1FA217B307E407F5075D
:102B500020F0A21BB30BE40BF50B661F771F881F39
:102B6000991F1A9469F760957095809590959B01CF
:102B7000AC01BD01CF010895A29FB001B39FC00178
:102B8000A39F700D811D1124911DB29F700D811D99
:102B90001124911D0895EE0FFF1F0590F491E02D73
:062BA0000994F894FFCF38
:102BA6001030750000FFFFFFFF00E100000000008D
:102BB600000100000000C18081000000000000004C
:102BC6006007CB0881077607C7078507A3070000BC
:102BD6000000140A5C09F30AF20A50726573732046
:102BE6004120746F2073746172740047616D6520B3
:102BF6004F76657221004E657720486967682053D5
:102C0600636F72653A200046696E616C2053636F8C
:102C160072653A005072657373204120746F20729A
:082C2600657374617274000013
:00000001FF
